{"contracts/Procurement.sol":{"Procurement":{"abi":[{"inputs":[{"internalType":"uint256","name":"","type":"uint256"},{"internalType":"uint256","name":"","type":"uint256"}],"name":"bids","outputs":[{"internalType":"address","name":"supplier","type":"address"},{"internalType":"uint256","name":"amount","type":"uint256"},{"internalType":"string","name":"details","type":"string"},{"internalType":"bool","name":"isSubmitted","type":"bool"}],"stateMutability":"view","type":"function"},{"inputs":[{"internalType":"uint256","name":"_rfpId","type":"uint256"}],"name":"evaluateBids","outputs":[],"stateMutability":"nonpayable","type":"function"},{"inputs":[{"internalType":"uint256","name":"_rfpId","type":"uint256"}],"name":"getWinningBid","outputs":[{"internalType":"address","name":"","type":"address"}],"stateMutability":"view","type":"function"},{"inputs":[{"internalType":"string","name":"_name","type":"string"},{"internalType":"string","name":"_registrationNumber","type":"string"}],"name":"onboardSupplier","outputs":[],"stateMutability":"nonpayable","type":"function"},{"inputs":[{"internalType":"uint256","name":"_rfpId","type":"uint256"},{"internalType":"uint256","name":"_amount","type":"uint256"},{"internalType":"string","name":"_details","type":"string"}],"name":"submitBid","outputs":[],"stateMutability":"nonpayable","type":"function"},{"inputs":[{"internalType":"address","name":"","type":"address"}],"name":"suppliers","outputs":[{"internalType":"string","name":"name","type":"string"},{"internalType":"string","name":"registrationNumber","type":"string"},{"internalType":"bool","name":"isApproved","type":"bool"}],"stateMutability":"view","type":"function"},{"inputs":[{"internalType":"uint256","name":"","type":"uint256"}],"name":"winningBid","outputs":[{"internalType":"address","name":"","type":"address"}],"stateMutability":"view","type":"function"}],"evm":{"bytecode":{"linkReferences":{},"object":"608060405234801561001057600080fd5b50610f9e806100206000396000f3fe608060405234801561001057600080fd5b506004361061007d5760003560e01c80636175cc621161005b5780636175cc62146100ec5780636891939d146101085780637b3c4baa14610138578063d4ac9b8c1461016b5761007d565b806314c60bdd1461008257806316dc15fe1461009e5780633dfa2fea146100d0575b600080fd5b61009c60048036038101906100979190610918565b61019b565b005b6100b860048036038101906100b391906109e5565b61029f565b6040516100c793929190610aac565b60405180910390f35b6100ea60048036038101906100e59190610af1565b6103e6565b005b61010660048036038101906101019190610b1e565b610567565b005b610122600480360381019061011d9190610af1565b610616565b60405161012f9190610ba5565b60405180910390f35b610152600480360381019061014d9190610bc0565b610653565b6040516101629493929190610c0f565b60405180910390f35b61018560048036038101906101809190610af1565b610755565b6040516101929190610ba5565b60405180910390f35b6001600084815260200190815260200160002060405180608001604052803373ffffffffffffffffffffffffffffffffffffffff16815260200184815260200183815260200160011515815250908060018154018082558091505060019003906000526020600020906004020160009091909190915060008201518160000160006101000a81548173ffffffffffffffffffffffffffffffffffffffff021916908373ffffffffffffffffffffffffffffffffffffffff1602179055506020820151816001015560408201518160020190816102779190610e67565b5060608201518160030160006101000a81548160ff0219169083151502179055505050505050565b60006020528060005260406000206000915090508060000180546102c290610c8a565b80601f01602080910402602001604051908101604052809291908181526020018280546102ee90610c8a565b801561033b5780601f106103105761010080835404028352916020019161033b565b820191906000526020600020905b81548152906001019060200180831161031e57829003601f168201915b50505050509080600101805461035090610c8a565b80601f016020809104026020016040519081016040528092919081815260200182805461037c90610c8a565b80156103c95780601f1061039e576101008083540402835291602001916103c9565b820191906000526020600020905b8154815290600101906020018083116103ac57829003601f168201915b5050505050908060020160009054906101000a900460ff16905083565b60007fffffffffffffffffffffffffffffffffffffffffffffffffffffffffffffffff9050600080600090505b600160008581526020019081526020016000208054905081101561050f578260016000868152602001908152602001600020828154811061045757610456610f39565b5b90600052602060002090600402016001015410156105025760016000858152602001908152602001600020818154811061049457610493610f39565b5b90600052602060002090600402016001015492506001600085815260200190815260200160002081815481106104cd576104cc610f39565b5b906000526020600020906004020160000160009054906101000a900473ffffffffffffffffffffffffffffffffffffffff1691505b8080600101915050610413565b50806002600085815260200190815260200160002060006101000a81548173ffffffffffffffffffffffffffffffffffffffff021916908373ffffffffffffffffffffffffffffffffffffffff160217905550505050565b6040518060600160405280838152602001828152602001600115158152506000803373ffffffffffffffffffffffffffffffffffffffff1673ffffffffffffffffffffffffffffffffffffffff16815260200190815260200160002060008201518160000190816105d89190610e67565b5060208201518160010190816105ee9190610e67565b5060408201518160020160006101000a81548160ff0219169083151502179055509050505050565b60006002600083815260200190815260200160002060009054906101000a900473ffffffffffffffffffffffffffffffffffffffff169050919050565b6001602052816000526040600020818154811061066f57600080fd5b9060005260206000209060040201600091509150508060000160009054906101000a900473ffffffffffffffffffffffffffffffffffffffff16908060010154908060020180546106bf90610c8a565b80601f01602080910402602001604051908101604052809291908181526020018280546106eb90610c8a565b80156107385780601f1061070d57610100808354040283529160200191610738565b820191906000526020600020905b81548152906001019060200180831161071b57829003601f168201915b5050505050908060030160009054906101000a900460ff16905084565b60026020528060005260406000206000915054906101000a900473ffffffffffffffffffffffffffffffffffffffff1681565b6000604051905090565b600080fd5b600080fd5b6000819050919050565b6107af8161079c565b81146107ba57600080fd5b50565b6000813590506107cc816107a6565b92915050565b600080fd5b600080fd5b6000601f19601f8301169050919050565b7f4e487b7100000000000000000000000000000000000000000000000000000000600052604160045260246000fd5b610825826107dc565b810181811067ffffffffffffffff82111715610844576108436107ed565b5b80604052505050565b6000610857610788565b9050610863828261081c565b919050565b600067ffffffffffffffff821115610883576108826107ed565b5b61088c826107dc565b9050602081019050919050565b82818337600083830152505050565b60006108bb6108b684610868565b61084d565b9050828152602081018484840111156108d7576108d66107d7565b5b6108e2848285610899565b509392505050565b600082601f8301126108ff576108fe6107d2565b5b813561090f8482602086016108a8565b91505092915050565b60008060006060848603121561093157610930610792565b5b600061093f868287016107bd565b9350506020610950868287016107bd565b925050604084013567ffffffffffffffff81111561097157610970610797565b5b61097d868287016108ea565b9150509250925092565b600073ffffffffffffffffffffffffffffffffffffffff82169050919050565b60006109b282610987565b9050919050565b6109c2816109a7565b81146109cd57600080fd5b50565b6000813590506109df816109b9565b92915050565b6000602082840312156109fb576109fa610792565b5b6000610a09848285016109d0565b91505092915050565b600081519050919050565b600082825260208201905092915050565b60005b83811015610a4c578082015181840152602081019050610a31565b60008484015250505050565b6000610a6382610a12565b610a6d8185610a1d565b9350610a7d818560208601610a2e565b610a86816107dc565b840191505092915050565b60008115159050919050565b610aa681610a91565b82525050565b60006060820190508181036000830152610ac68186610a58565b90508181036020830152610ada8185610a58565b9050610ae96040830184610a9d565b949350505050565b600060208284031215610b0757610b06610792565b5b6000610b15848285016107bd565b91505092915050565b60008060408385031215610b3557610b34610792565b5b600083013567ffffffffffffffff811115610b5357610b52610797565b5b610b5f858286016108ea565b925050602083013567ffffffffffffffff811115610b8057610b7f610797565b5b610b8c858286016108ea565b9150509250929050565b610b9f816109a7565b82525050565b6000602082019050610bba6000830184610b96565b92915050565b60008060408385031215610bd757610bd6610792565b5b6000610be5858286016107bd565b9250506020610bf6858286016107bd565b9150509250929050565b610c098161079c565b82525050565b6000608082019050610c246000830187610b96565b610c316020830186610c00565b8181036040830152610c438185610a58565b9050610c526060830184610a9d565b95945050505050565b7f4e487b7100000000000000000000000000000000000000000000000000000000600052602260045260246000fd5b60006002820490506001821680610ca257607f821691505b602082108103610cb557610cb4610c5b565b5b50919050565b60008190508160005260206000209050919050565b60006020601f8301049050919050565b600082821b905092915050565b600060088302610d1d7fffffffffffffffffffffffffffffffffffffffffffffffffffffffffffffffff82610ce0565b610d278683610ce0565b95508019841693508086168417925050509392505050565b6000819050919050565b6000610d64610d5f610d5a8461079c565b610d3f565b61079c565b9050919050565b6000819050919050565b610d7e83610d49565b610d92610d8a82610d6b565b848454610ced565b825550505050565b600090565b610da7610d9a565b610db2818484610d75565b505050565b5b81811015610dd657610dcb600082610d9f565b600181019050610db8565b5050565b601f821115610e1b57610dec81610cbb565b610df584610cd0565b81016020851015610e04578190505b610e18610e1085610cd0565b830182610db7565b50505b505050565b600082821c905092915050565b6000610e3e60001984600802610e20565b1980831691505092915050565b6000610e578383610e2d565b9150826002028217905092915050565b610e7082610a12565b67ffffffffffffffff811115610e8957610e886107ed565b5b610e938254610c8a565b610e9e828285610dda565b600060209050601f831160018114610ed15760008415610ebf578287015190505b610ec98582610e4b565b865550610f31565b601f198416610edf86610cbb565b60005b82811015610f0757848901518255600182019150602085019450602081019050610ee2565b86831015610f245784890151610f20601f891682610e2d565b8355505b6001600288020188555050505b505050505050565b7f4e487b7100000000000000000000000000000000000000000000000000000000600052603260045260246000fdfea2646970667358221220bc2681f428a3e60727ae78bc18bd34addc48ff691de8b2b17bc8f39aa7a294e464736f6c63430008180033","opcodes":"PUSH1 0x80 PUSH1 0x40 MSTORE CALLVALUE DUP1 ISZERO PUSH2 0x10 JUMPI PUSH1 0x0 DUP1 REVERT JUMPDEST POP PUSH2 0xF9E DUP1 PUSH2 0x20 PUSH1 0x0 CODECOPY PUSH1 0x0 RETURN INVALID PUSH1 0x80 PUSH1 0x40 MSTORE CALLVALUE DUP1 ISZERO PUSH2 0x10 JUMPI PUSH1 0x0 DUP1 REVERT JUMPDEST POP PUSH1 0x4 CALLDATASIZE LT PUSH2 0x7D JUMPI PUSH1 0x0 CALLDATALOAD PUSH1 0xE0 SHR DUP1 PUSH4 0x6175CC62 GT PUSH2 0x5B JUMPI DUP1 PUSH4 0x6175CC62 EQ PUSH2 0xEC JUMPI DUP1 PUSH4 0x6891939D EQ PUSH2 0x108 JUMPI DUP1 PUSH4 0x7B3C4BAA EQ PUSH2 0x138 JUMPI DUP1 PUSH4 0xD4AC9B8C EQ PUSH2 0x16B JUMPI PUSH2 0x7D JUMP JUMPDEST DUP1 PUSH4 0x14C60BDD EQ PUSH2 0x82 JUMPI DUP1 PUSH4 0x16DC15FE EQ PUSH2 0x9E JUMPI DUP1 PUSH4 0x3DFA2FEA EQ PUSH2 0xD0 JUMPI JUMPDEST PUSH1 0x0 DUP1 REVERT JUMPDEST PUSH2 0x9C PUSH1 0x4 DUP1 CALLDATASIZE SUB DUP2 ADD SWAP1 PUSH2 0x97 SWAP2 SWAP1 PUSH2 0x918 JUMP JUMPDEST PUSH2 0x19B JUMP JUMPDEST STOP JUMPDEST PUSH2 0xB8 PUSH1 0x4 DUP1 CALLDATASIZE SUB DUP2 ADD SWAP1 PUSH2 0xB3 SWAP2 SWAP1 PUSH2 0x9E5 JUMP JUMPDEST PUSH2 0x29F JUMP JUMPDEST PUSH1 0x40 MLOAD PUSH2 0xC7 SWAP4 SWAP3 SWAP2 SWAP1 PUSH2 0xAAC JUMP JUMPDEST PUSH1 0x40 MLOAD DUP1 SWAP2 SUB SWAP1 RETURN JUMPDEST PUSH2 0xEA PUSH1 0x4 DUP1 CALLDATASIZE SUB DUP2 ADD SWAP1 PUSH2 0xE5 SWAP2 SWAP1 PUSH2 0xAF1 JUMP JUMPDEST PUSH2 0x3E6 JUMP JUMPDEST STOP JUMPDEST PUSH2 0x106 PUSH1 0x4 DUP1 CALLDATASIZE SUB DUP2 ADD SWAP1 PUSH2 0x101 SWAP2 SWAP1 PUSH2 0xB1E JUMP JUMPDEST PUSH2 0x567 JUMP JUMPDEST STOP JUMPDEST PUSH2 0x122 PUSH1 0x4 DUP1 CALLDATASIZE SUB DUP2 ADD SWAP1 PUSH2 0x11D SWAP2 SWAP1 PUSH2 0xAF1 JUMP JUMPDEST PUSH2 0x616 JUMP JUMPDEST PUSH1 0x40 MLOAD PUSH2 0x12F SWAP2 SWAP1 PUSH2 0xBA5 JUMP JUMPDEST PUSH1 0x40 MLOAD DUP1 SWAP2 SUB SWAP1 RETURN JUMPDEST PUSH2 0x152 PUSH1 0x4 DUP1 CALLDATASIZE SUB DUP2 ADD SWAP1 PUSH2 0x14D SWAP2 SWAP1 PUSH2 0xBC0 JUMP JUMPDEST PUSH2 0x653 JUMP JUMPDEST PUSH1 0x40 MLOAD PUSH2 0x162 SWAP5 SWAP4 SWAP3 SWAP2 SWAP1 PUSH2 0xC0F JUMP JUMPDEST PUSH1 0x40 MLOAD DUP1 SWAP2 SUB SWAP1 RETURN JUMPDEST PUSH2 0x185 PUSH1 0x4 DUP1 CALLDATASIZE SUB DUP2 ADD SWAP1 PUSH2 0x180 SWAP2 SWAP1 PUSH2 0xAF1 JUMP JUMPDEST PUSH2 0x755 JUMP JUMPDEST PUSH1 0x40 MLOAD PUSH2 0x192 SWAP2 SWAP1 PUSH2 0xBA5 JUMP JUMPDEST PUSH1 0x40 MLOAD DUP1 SWAP2 SUB SWAP1 RETURN JUMPDEST PUSH1 0x1 PUSH1 0x0 DUP5 DUP2 MSTORE PUSH1 0x20 ADD SWAP1 DUP2 MSTORE PUSH1 0x20 ADD PUSH1 0x0 KECCAK256 PUSH1 0x40 MLOAD DUP1 PUSH1 0x80 ADD PUSH1 0x40 MSTORE DUP1 CALLER PUSH20 0xFFFFFFFFFFFFFFFFFFFFFFFFFFFFFFFFFFFFFFFF AND DUP2 MSTORE PUSH1 0x20 ADD DUP5 DUP2 MSTORE PUSH1 0x20 ADD DUP4 DUP2 MSTORE PUSH1 0x20 ADD PUSH1 0x1 ISZERO ISZERO DUP2 MSTORE POP SWAP1 DUP1 PUSH1 0x1 DUP2 SLOAD ADD DUP1 DUP3 SSTORE DUP1 SWAP2 POP POP PUSH1 0x1 SWAP1 SUB SWAP1 PUSH1 0x0 MSTORE PUSH1 0x20 PUSH1 0x0 KECCAK256 SWAP1 PUSH1 0x4 MUL ADD PUSH1 0x0 SWAP1 SWAP2 SWAP1 SWAP2 SWAP1 SWAP2 POP PUSH1 0x0 DUP3 ADD MLOAD DUP2 PUSH1 0x0 ADD PUSH1 0x0 PUSH2 0x100 EXP DUP2 SLOAD DUP2 PUSH20 0xFFFFFFFFFFFFFFFFFFFFFFFFFFFFFFFFFFFFFFFF MUL NOT AND SWAP1 DUP4 PUSH20 0xFFFFFFFFFFFFFFFFFFFFFFFFFFFFFFFFFFFFFFFF AND MUL OR SWAP1 SSTORE POP PUSH1 0x20 DUP3 ADD MLOAD DUP2 PUSH1 0x1 ADD SSTORE PUSH1 0x40 DUP3 ADD MLOAD DUP2 PUSH1 0x2 ADD SWAP1 DUP2 PUSH2 0x277 SWAP2 SWAP1 PUSH2 0xE67 JUMP JUMPDEST POP PUSH1 0x60 DUP3 ADD MLOAD DUP2 PUSH1 0x3 ADD PUSH1 0x0 PUSH2 0x100 EXP DUP2 SLOAD DUP2 PUSH1 0xFF MUL NOT AND SWAP1 DUP4 ISZERO ISZERO MUL OR SWAP1 SSTORE POP POP POP POP POP POP JUMP JUMPDEST PUSH1 0x0 PUSH1 0x20 MSTORE DUP1 PUSH1 0x0 MSTORE PUSH1 0x40 PUSH1 0x0 KECCAK256 PUSH1 0x0 SWAP2 POP SWAP1 POP DUP1 PUSH1 0x0 ADD DUP1 SLOAD PUSH2 0x2C2 SWAP1 PUSH2 0xC8A JUMP JUMPDEST DUP1 PUSH1 0x1F ADD PUSH1 0x20 DUP1 SWAP2 DIV MUL PUSH1 0x20 ADD PUSH1 0x40 MLOAD SWAP1 DUP2 ADD PUSH1 0x40 MSTORE DUP1 SWAP3 SWAP2 SWAP1 DUP2 DUP2 MSTORE PUSH1 0x20 ADD DUP3 DUP1 SLOAD PUSH2 0x2EE SWAP1 PUSH2 0xC8A JUMP JUMPDEST DUP1 ISZERO PUSH2 0x33B JUMPI DUP1 PUSH1 0x1F LT PUSH2 0x310 JUMPI PUSH2 0x100 DUP1 DUP4 SLOAD DIV MUL DUP4 MSTORE SWAP2 PUSH1 0x20 ADD SWAP2 PUSH2 0x33B JUMP JUMPDEST DUP3 ADD SWAP2 SWAP1 PUSH1 0x0 MSTORE PUSH1 0x20 PUSH1 0x0 KECCAK256 SWAP1 JUMPDEST DUP2 SLOAD DUP2 MSTORE SWAP1 PUSH1 0x1 ADD SWAP1 PUSH1 0x20 ADD DUP1 DUP4 GT PUSH2 0x31E JUMPI DUP3 SWAP1 SUB PUSH1 0x1F AND DUP3 ADD SWAP2 JUMPDEST POP POP POP POP POP SWAP1 DUP1 PUSH1 0x1 ADD DUP1 SLOAD PUSH2 0x350 SWAP1 PUSH2 0xC8A JUMP JUMPDEST DUP1 PUSH1 0x1F ADD PUSH1 0x20 DUP1 SWAP2 DIV MUL PUSH1 0x20 ADD PUSH1 0x40 MLOAD SWAP1 DUP2 ADD PUSH1 0x40 MSTORE DUP1 SWAP3 SWAP2 SWAP1 DUP2 DUP2 MSTORE PUSH1 0x20 ADD DUP3 DUP1 SLOAD PUSH2 0x37C SWAP1 PUSH2 0xC8A JUMP JUMPDEST DUP1 ISZERO PUSH2 0x3C9 JUMPI DUP1 PUSH1 0x1F LT PUSH2 0x39E JUMPI PUSH2 0x100 DUP1 DUP4 SLOAD DIV MUL DUP4 MSTORE SWAP2 PUSH1 0x20 ADD SWAP2 PUSH2 0x3C9 JUMP JUMPDEST DUP3 ADD SWAP2 SWAP1 PUSH1 0x0 MSTORE PUSH1 0x20 PUSH1 0x0 KECCAK256 SWAP1 JUMPDEST DUP2 SLOAD DUP2 MSTORE SWAP1 PUSH1 0x1 ADD SWAP1 PUSH1 0x20 ADD DUP1 DUP4 GT PUSH2 0x3AC JUMPI DUP3 SWAP1 SUB PUSH1 0x1F AND DUP3 ADD SWAP2 JUMPDEST POP POP POP POP POP SWAP1 DUP1 PUSH1 0x2 ADD PUSH1 0x0 SWAP1 SLOAD SWAP1 PUSH2 0x100 EXP SWAP1 DIV PUSH1 0xFF AND SWAP1 POP DUP4 JUMP JUMPDEST PUSH1 0x0 PUSH32 0xFFFFFFFFFFFFFFFFFFFFFFFFFFFFFFFFFFFFFFFFFFFFFFFFFFFFFFFFFFFFFFFF SWAP1 POP PUSH1 0x0 DUP1 PUSH1 0x0 SWAP1 POP JUMPDEST PUSH1 0x1 PUSH1 0x0 DUP6 DUP2 MSTORE PUSH1 0x20 ADD SWAP1 DUP2 MSTORE PUSH1 0x20 ADD PUSH1 0x0 KECCAK256 DUP1 SLOAD SWAP1 POP DUP2 LT ISZERO PUSH2 0x50F JUMPI DUP3 PUSH1 0x1 PUSH1 0x0 DUP7 DUP2 MSTORE PUSH1 0x20 ADD SWAP1 DUP2 MSTORE PUSH1 0x20 ADD PUSH1 0x0 KECCAK256 DUP3 DUP2 SLOAD DUP2 LT PUSH2 0x457 JUMPI PUSH2 0x456 PUSH2 0xF39 JUMP JUMPDEST JUMPDEST SWAP1 PUSH1 0x0 MSTORE PUSH1 0x20 PUSH1 0x0 KECCAK256 SWAP1 PUSH1 0x4 MUL ADD PUSH1 0x1 ADD SLOAD LT ISZERO PUSH2 0x502 JUMPI PUSH1 0x1 PUSH1 0x0 DUP6 DUP2 MSTORE PUSH1 0x20 ADD SWAP1 DUP2 MSTORE PUSH1 0x20 ADD PUSH1 0x0 KECCAK256 DUP2 DUP2 SLOAD DUP2 LT PUSH2 0x494 JUMPI PUSH2 0x493 PUSH2 0xF39 JUMP JUMPDEST JUMPDEST SWAP1 PUSH1 0x0 MSTORE PUSH1 0x20 PUSH1 0x0 KECCAK256 SWAP1 PUSH1 0x4 MUL ADD PUSH1 0x1 ADD SLOAD SWAP3 POP PUSH1 0x1 PUSH1 0x0 DUP6 DUP2 MSTORE PUSH1 0x20 ADD SWAP1 DUP2 MSTORE PUSH1 0x20 ADD PUSH1 0x0 KECCAK256 DUP2 DUP2 SLOAD DUP2 LT PUSH2 0x4CD JUMPI PUSH2 0x4CC PUSH2 0xF39 JUMP JUMPDEST JUMPDEST SWAP1 PUSH1 0x0 MSTORE PUSH1 0x20 PUSH1 0x0 KECCAK256 SWAP1 PUSH1 0x4 MUL ADD PUSH1 0x0 ADD PUSH1 0x0 SWAP1 SLOAD SWAP1 PUSH2 0x100 EXP SWAP1 DIV PUSH20 0xFFFFFFFFFFFFFFFFFFFFFFFFFFFFFFFFFFFFFFFF AND SWAP2 POP JUMPDEST DUP1 DUP1 PUSH1 0x1 ADD SWAP2 POP POP PUSH2 0x413 JUMP JUMPDEST POP DUP1 PUSH1 0x2 PUSH1 0x0 DUP6 DUP2 MSTORE PUSH1 0x20 ADD SWAP1 DUP2 MSTORE PUSH1 0x20 ADD PUSH1 0x0 KECCAK256 PUSH1 0x0 PUSH2 0x100 EXP DUP2 SLOAD DUP2 PUSH20 0xFFFFFFFFFFFFFFFFFFFFFFFFFFFFFFFFFFFFFFFF MUL NOT AND SWAP1 DUP4 PUSH20 0xFFFFFFFFFFFFFFFFFFFFFFFFFFFFFFFFFFFFFFFF AND MUL OR SWAP1 SSTORE POP POP POP POP JUMP JUMPDEST PUSH1 0x40 MLOAD DUP1 PUSH1 0x60 ADD PUSH1 0x40 MSTORE DUP1 DUP4 DUP2 MSTORE PUSH1 0x20 ADD DUP3 DUP2 MSTORE PUSH1 0x20 ADD PUSH1 0x1 ISZERO ISZERO DUP2 MSTORE POP PUSH1 0x0 DUP1 CALLER PUSH20 0xFFFFFFFFFFFFFFFFFFFFFFFFFFFFFFFFFFFFFFFF AND PUSH20 0xFFFFFFFFFFFFFFFFFFFFFFFFFFFFFFFFFFFFFFFF AND DUP2 MSTORE PUSH1 0x20 ADD SWAP1 DUP2 MSTORE PUSH1 0x20 ADD PUSH1 0x0 KECCAK256 PUSH1 0x0 DUP3 ADD MLOAD DUP2 PUSH1 0x0 ADD SWAP1 DUP2 PUSH2 0x5D8 SWAP2 SWAP1 PUSH2 0xE67 JUMP JUMPDEST POP PUSH1 0x20 DUP3 ADD MLOAD DUP2 PUSH1 0x1 ADD SWAP1 DUP2 PUSH2 0x5EE SWAP2 SWAP1 PUSH2 0xE67 JUMP JUMPDEST POP PUSH1 0x40 DUP3 ADD MLOAD DUP2 PUSH1 0x2 ADD PUSH1 0x0 PUSH2 0x100 EXP DUP2 SLOAD DUP2 PUSH1 0xFF MUL NOT AND SWAP1 DUP4 ISZERO ISZERO MUL OR SWAP1 SSTORE POP SWAP1 POP POP POP POP JUMP JUMPDEST PUSH1 0x0 PUSH1 0x2 PUSH1 0x0 DUP4 DUP2 MSTORE PUSH1 0x20 ADD SWAP1 DUP2 MSTORE PUSH1 0x20 ADD PUSH1 0x0 KECCAK256 PUSH1 0x0 SWAP1 SLOAD SWAP1 PUSH2 0x100 EXP SWAP1 DIV PUSH20 0xFFFFFFFFFFFFFFFFFFFFFFFFFFFFFFFFFFFFFFFF AND SWAP1 POP SWAP2 SWAP1 POP JUMP JUMPDEST PUSH1 0x1 PUSH1 0x20 MSTORE DUP2 PUSH1 0x0 MSTORE PUSH1 0x40 PUSH1 0x0 KECCAK256 DUP2 DUP2 SLOAD DUP2 LT PUSH2 0x66F JUMPI PUSH1 0x0 DUP1 REVERT JUMPDEST SWAP1 PUSH1 0x0 MSTORE PUSH1 0x20 PUSH1 0x0 KECCAK256 SWAP1 PUSH1 0x4 MUL ADD PUSH1 0x0 SWAP2 POP SWAP2 POP POP DUP1 PUSH1 0x0 ADD PUSH1 0x0 SWAP1 SLOAD SWAP1 PUSH2 0x100 EXP SWAP1 DIV PUSH20 0xFFFFFFFFFFFFFFFFFFFFFFFFFFFFFFFFFFFFFFFF AND SWAP1 DUP1 PUSH1 0x1 ADD SLOAD SWAP1 DUP1 PUSH1 0x2 ADD DUP1 SLOAD PUSH2 0x6BF SWAP1 PUSH2 0xC8A JUMP JUMPDEST DUP1 PUSH1 0x1F ADD PUSH1 0x20 DUP1 SWAP2 DIV MUL PUSH1 0x20 ADD PUSH1 0x40 MLOAD SWAP1 DUP2 ADD PUSH1 0x40 MSTORE DUP1 SWAP3 SWAP2 SWAP1 DUP2 DUP2 MSTORE PUSH1 0x20 ADD DUP3 DUP1 SLOAD PUSH2 0x6EB SWAP1 PUSH2 0xC8A JUMP JUMPDEST DUP1 ISZERO PUSH2 0x738 JUMPI DUP1 PUSH1 0x1F LT PUSH2 0x70D JUMPI PUSH2 0x100 DUP1 DUP4 SLOAD DIV MUL DUP4 MSTORE SWAP2 PUSH1 0x20 ADD SWAP2 PUSH2 0x738 JUMP JUMPDEST DUP3 ADD SWAP2 SWAP1 PUSH1 0x0 MSTORE PUSH1 0x20 PUSH1 0x0 KECCAK256 SWAP1 JUMPDEST DUP2 SLOAD DUP2 MSTORE SWAP1 PUSH1 0x1 ADD SWAP1 PUSH1 0x20 ADD DUP1 DUP4 GT PUSH2 0x71B JUMPI DUP3 SWAP1 SUB PUSH1 0x1F AND DUP3 ADD SWAP2 JUMPDEST POP POP POP POP POP SWAP1 DUP1 PUSH1 0x3 ADD PUSH1 0x0 SWAP1 SLOAD SWAP1 PUSH2 0x100 EXP SWAP1 DIV PUSH1 0xFF AND SWAP1 POP DUP5 JUMP JUMPDEST PUSH1 0x2 PUSH1 0x20 MSTORE DUP1 PUSH1 0x0 MSTORE PUSH1 0x40 PUSH1 0x0 KECCAK256 PUSH1 0x0 SWAP2 POP SLOAD SWAP1 PUSH2 0x100 EXP SWAP1 DIV PUSH20 0xFFFFFFFFFFFFFFFFFFFFFFFFFFFFFFFFFFFFFFFF AND DUP2 JUMP JUMPDEST PUSH1 0x0 PUSH1 0x40 MLOAD SWAP1 POP SWAP1 JUMP JUMPDEST PUSH1 0x0 DUP1 REVERT JUMPDEST PUSH1 0x0 DUP1 REVERT JUMPDEST PUSH1 0x0 DUP2 SWAP1 POP SWAP2 SWAP1 POP JUMP JUMPDEST PUSH2 0x7AF DUP2 PUSH2 0x79C JUMP JUMPDEST DUP2 EQ PUSH2 0x7BA JUMPI PUSH1 0x0 DUP1 REVERT JUMPDEST POP JUMP JUMPDEST PUSH1 0x0 DUP2 CALLDATALOAD SWAP1 POP PUSH2 0x7CC DUP2 PUSH2 0x7A6 JUMP JUMPDEST SWAP3 SWAP2 POP POP JUMP JUMPDEST PUSH1 0x0 DUP1 REVERT JUMPDEST PUSH1 0x0 DUP1 REVERT JUMPDEST PUSH1 0x0 PUSH1 0x1F NOT PUSH1 0x1F DUP4 ADD AND SWAP1 POP SWAP2 SWAP1 POP JUMP JUMPDEST PUSH32 0x4E487B7100000000000000000000000000000000000000000000000000000000 PUSH1 0x0 MSTORE PUSH1 0x41 PUSH1 0x4 MSTORE PUSH1 0x24 PUSH1 0x0 REVERT JUMPDEST PUSH2 0x825 DUP3 PUSH2 0x7DC JUMP JUMPDEST DUP2 ADD DUP2 DUP2 LT PUSH8 0xFFFFFFFFFFFFFFFF DUP3 GT OR ISZERO PUSH2 0x844 JUMPI PUSH2 0x843 PUSH2 0x7ED JUMP JUMPDEST JUMPDEST DUP1 PUSH1 0x40 MSTORE POP POP POP JUMP JUMPDEST PUSH1 0x0 PUSH2 0x857 PUSH2 0x788 JUMP JUMPDEST SWAP1 POP PUSH2 0x863 DUP3 DUP3 PUSH2 0x81C JUMP JUMPDEST SWAP2 SWAP1 POP JUMP JUMPDEST PUSH1 0x0 PUSH8 0xFFFFFFFFFFFFFFFF DUP3 GT ISZERO PUSH2 0x883 JUMPI PUSH2 0x882 PUSH2 0x7ED JUMP JUMPDEST JUMPDEST PUSH2 0x88C DUP3 PUSH2 0x7DC JUMP JUMPDEST SWAP1 POP PUSH1 0x20 DUP2 ADD SWAP1 POP SWAP2 SWAP1 POP JUMP JUMPDEST DUP3 DUP2 DUP4 CALLDATACOPY PUSH1 0x0 DUP4 DUP4 ADD MSTORE POP POP POP JUMP JUMPDEST PUSH1 0x0 PUSH2 0x8BB PUSH2 0x8B6 DUP5 PUSH2 0x868 JUMP JUMPDEST PUSH2 0x84D JUMP JUMPDEST SWAP1 POP DUP3 DUP2 MSTORE PUSH1 0x20 DUP2 ADD DUP5 DUP5 DUP5 ADD GT ISZERO PUSH2 0x8D7 JUMPI PUSH2 0x8D6 PUSH2 0x7D7 JUMP JUMPDEST JUMPDEST PUSH2 0x8E2 DUP5 DUP3 DUP6 PUSH2 0x899 JUMP JUMPDEST POP SWAP4 SWAP3 POP POP POP JUMP JUMPDEST PUSH1 0x0 DUP3 PUSH1 0x1F DUP4 ADD SLT PUSH2 0x8FF JUMPI PUSH2 0x8FE PUSH2 0x7D2 JUMP JUMPDEST JUMPDEST DUP2 CALLDATALOAD PUSH2 0x90F DUP5 DUP3 PUSH1 0x20 DUP7 ADD PUSH2 0x8A8 JUMP JUMPDEST SWAP2 POP POP SWAP3 SWAP2 POP POP JUMP JUMPDEST PUSH1 0x0 DUP1 PUSH1 0x0 PUSH1 0x60 DUP5 DUP7 SUB SLT ISZERO PUSH2 0x931 JUMPI PUSH2 0x930 PUSH2 0x792 JUMP JUMPDEST JUMPDEST PUSH1 0x0 PUSH2 0x93F DUP7 DUP3 DUP8 ADD PUSH2 0x7BD JUMP JUMPDEST SWAP4 POP POP PUSH1 0x20 PUSH2 0x950 DUP7 DUP3 DUP8 ADD PUSH2 0x7BD JUMP JUMPDEST SWAP3 POP POP PUSH1 0x40 DUP5 ADD CALLDATALOAD PUSH8 0xFFFFFFFFFFFFFFFF DUP2 GT ISZERO PUSH2 0x971 JUMPI PUSH2 0x970 PUSH2 0x797 JUMP JUMPDEST JUMPDEST PUSH2 0x97D DUP7 DUP3 DUP8 ADD PUSH2 0x8EA JUMP JUMPDEST SWAP2 POP POP SWAP3 POP SWAP3 POP SWAP3 JUMP JUMPDEST PUSH1 0x0 PUSH20 0xFFFFFFFFFFFFFFFFFFFFFFFFFFFFFFFFFFFFFFFF DUP3 AND SWAP1 POP SWAP2 SWAP1 POP JUMP JUMPDEST PUSH1 0x0 PUSH2 0x9B2 DUP3 PUSH2 0x987 JUMP JUMPDEST SWAP1 POP SWAP2 SWAP1 POP JUMP JUMPDEST PUSH2 0x9C2 DUP2 PUSH2 0x9A7 JUMP JUMPDEST DUP2 EQ PUSH2 0x9CD JUMPI PUSH1 0x0 DUP1 REVERT JUMPDEST POP JUMP JUMPDEST PUSH1 0x0 DUP2 CALLDATALOAD SWAP1 POP PUSH2 0x9DF DUP2 PUSH2 0x9B9 JUMP JUMPDEST SWAP3 SWAP2 POP POP JUMP JUMPDEST PUSH1 0x0 PUSH1 0x20 DUP3 DUP5 SUB SLT ISZERO PUSH2 0x9FB JUMPI PUSH2 0x9FA PUSH2 0x792 JUMP JUMPDEST JUMPDEST PUSH1 0x0 PUSH2 0xA09 DUP5 DUP3 DUP6 ADD PUSH2 0x9D0 JUMP JUMPDEST SWAP2 POP POP SWAP3 SWAP2 POP POP JUMP JUMPDEST PUSH1 0x0 DUP2 MLOAD SWAP1 POP SWAP2 SWAP1 POP JUMP JUMPDEST PUSH1 0x0 DUP3 DUP3 MSTORE PUSH1 0x20 DUP3 ADD SWAP1 POP SWAP3 SWAP2 POP POP JUMP JUMPDEST PUSH1 0x0 JUMPDEST DUP4 DUP2 LT ISZERO PUSH2 0xA4C JUMPI DUP1 DUP3 ADD MLOAD DUP2 DUP5 ADD MSTORE PUSH1 0x20 DUP2 ADD SWAP1 POP PUSH2 0xA31 JUMP JUMPDEST PUSH1 0x0 DUP5 DUP5 ADD MSTORE POP POP POP POP JUMP JUMPDEST PUSH1 0x0 PUSH2 0xA63 DUP3 PUSH2 0xA12 JUMP JUMPDEST PUSH2 0xA6D DUP2 DUP6 PUSH2 0xA1D JUMP JUMPDEST SWAP4 POP PUSH2 0xA7D DUP2 DUP6 PUSH1 0x20 DUP7 ADD PUSH2 0xA2E JUMP JUMPDEST PUSH2 0xA86 DUP2 PUSH2 0x7DC JUMP JUMPDEST DUP5 ADD SWAP2 POP POP SWAP3 SWAP2 POP POP JUMP JUMPDEST PUSH1 0x0 DUP2 ISZERO ISZERO SWAP1 POP SWAP2 SWAP1 POP JUMP JUMPDEST PUSH2 0xAA6 DUP2 PUSH2 0xA91 JUMP JUMPDEST DUP3 MSTORE POP POP JUMP JUMPDEST PUSH1 0x0 PUSH1 0x60 DUP3 ADD SWAP1 POP DUP2 DUP2 SUB PUSH1 0x0 DUP4 ADD MSTORE PUSH2 0xAC6 DUP2 DUP7 PUSH2 0xA58 JUMP JUMPDEST SWAP1 POP DUP2 DUP2 SUB PUSH1 0x20 DUP4 ADD MSTORE PUSH2 0xADA DUP2 DUP6 PUSH2 0xA58 JUMP JUMPDEST SWAP1 POP PUSH2 0xAE9 PUSH1 0x40 DUP4 ADD DUP5 PUSH2 0xA9D JUMP JUMPDEST SWAP5 SWAP4 POP POP POP POP JUMP JUMPDEST PUSH1 0x0 PUSH1 0x20 DUP3 DUP5 SUB SLT ISZERO PUSH2 0xB07 JUMPI PUSH2 0xB06 PUSH2 0x792 JUMP JUMPDEST JUMPDEST PUSH1 0x0 PUSH2 0xB15 DUP5 DUP3 DUP6 ADD PUSH2 0x7BD JUMP JUMPDEST SWAP2 POP POP SWAP3 SWAP2 POP POP JUMP JUMPDEST PUSH1 0x0 DUP1 PUSH1 0x40 DUP4 DUP6 SUB SLT ISZERO PUSH2 0xB35 JUMPI PUSH2 0xB34 PUSH2 0x792 JUMP JUMPDEST JUMPDEST PUSH1 0x0 DUP4 ADD CALLDATALOAD PUSH8 0xFFFFFFFFFFFFFFFF DUP2 GT ISZERO PUSH2 0xB53 JUMPI PUSH2 0xB52 PUSH2 0x797 JUMP JUMPDEST JUMPDEST PUSH2 0xB5F DUP6 DUP3 DUP7 ADD PUSH2 0x8EA JUMP JUMPDEST SWAP3 POP POP PUSH1 0x20 DUP4 ADD CALLDATALOAD PUSH8 0xFFFFFFFFFFFFFFFF DUP2 GT ISZERO PUSH2 0xB80 JUMPI PUSH2 0xB7F PUSH2 0x797 JUMP JUMPDEST JUMPDEST PUSH2 0xB8C DUP6 DUP3 DUP7 ADD PUSH2 0x8EA JUMP JUMPDEST SWAP2 POP POP SWAP3 POP SWAP3 SWAP1 POP JUMP JUMPDEST PUSH2 0xB9F DUP2 PUSH2 0x9A7 JUMP JUMPDEST DUP3 MSTORE POP POP JUMP JUMPDEST PUSH1 0x0 PUSH1 0x20 DUP3 ADD SWAP1 POP PUSH2 0xBBA PUSH1 0x0 DUP4 ADD DUP5 PUSH2 0xB96 JUMP JUMPDEST SWAP3 SWAP2 POP POP JUMP JUMPDEST PUSH1 0x0 DUP1 PUSH1 0x40 DUP4 DUP6 SUB SLT ISZERO PUSH2 0xBD7 JUMPI PUSH2 0xBD6 PUSH2 0x792 JUMP JUMPDEST JUMPDEST PUSH1 0x0 PUSH2 0xBE5 DUP6 DUP3 DUP7 ADD PUSH2 0x7BD JUMP JUMPDEST SWAP3 POP POP PUSH1 0x20 PUSH2 0xBF6 DUP6 DUP3 DUP7 ADD PUSH2 0x7BD JUMP JUMPDEST SWAP2 POP POP SWAP3 POP SWAP3 SWAP1 POP JUMP JUMPDEST PUSH2 0xC09 DUP2 PUSH2 0x79C JUMP JUMPDEST DUP3 MSTORE POP POP JUMP JUMPDEST PUSH1 0x0 PUSH1 0x80 DUP3 ADD SWAP1 POP PUSH2 0xC24 PUSH1 0x0 DUP4 ADD DUP8 PUSH2 0xB96 JUMP JUMPDEST PUSH2 0xC31 PUSH1 0x20 DUP4 ADD DUP7 PUSH2 0xC00 JUMP JUMPDEST DUP2 DUP2 SUB PUSH1 0x40 DUP4 ADD MSTORE PUSH2 0xC43 DUP2 DUP6 PUSH2 0xA58 JUMP JUMPDEST SWAP1 POP PUSH2 0xC52 PUSH1 0x60 DUP4 ADD DUP5 PUSH2 0xA9D JUMP JUMPDEST SWAP6 SWAP5 POP POP POP POP POP JUMP JUMPDEST PUSH32 0x4E487B7100000000000000000000000000000000000000000000000000000000 PUSH1 0x0 MSTORE PUSH1 0x22 PUSH1 0x4 MSTORE PUSH1 0x24 PUSH1 0x0 REVERT JUMPDEST PUSH1 0x0 PUSH1 0x2 DUP3 DIV SWAP1 POP PUSH1 0x1 DUP3 AND DUP1 PUSH2 0xCA2 JUMPI PUSH1 0x7F DUP3 AND SWAP2 POP JUMPDEST PUSH1 0x20 DUP3 LT DUP2 SUB PUSH2 0xCB5 JUMPI PUSH2 0xCB4 PUSH2 0xC5B JUMP JUMPDEST JUMPDEST POP SWAP2 SWAP1 POP JUMP JUMPDEST PUSH1 0x0 DUP2 SWAP1 POP DUP2 PUSH1 0x0 MSTORE PUSH1 0x20 PUSH1 0x0 KECCAK256 SWAP1 POP SWAP2 SWAP1 POP JUMP JUMPDEST PUSH1 0x0 PUSH1 0x20 PUSH1 0x1F DUP4 ADD DIV SWAP1 POP SWAP2 SWAP1 POP JUMP JUMPDEST PUSH1 0x0 DUP3 DUP3 SHL SWAP1 POP SWAP3 SWAP2 POP POP JUMP JUMPDEST PUSH1 0x0 PUSH1 0x8 DUP4 MUL PUSH2 0xD1D PUSH32 0xFFFFFFFFFFFFFFFFFFFFFFFFFFFFFFFFFFFFFFFFFFFFFFFFFFFFFFFFFFFFFFFF DUP3 PUSH2 0xCE0 JUMP JUMPDEST PUSH2 0xD27 DUP7 DUP4 PUSH2 0xCE0 JUMP JUMPDEST SWAP6 POP DUP1 NOT DUP5 AND SWAP4 POP DUP1 DUP7 AND DUP5 OR SWAP3 POP POP POP SWAP4 SWAP3 POP POP POP JUMP JUMPDEST PUSH1 0x0 DUP2 SWAP1 POP SWAP2 SWAP1 POP JUMP JUMPDEST PUSH1 0x0 PUSH2 0xD64 PUSH2 0xD5F PUSH2 0xD5A DUP5 PUSH2 0x79C JUMP JUMPDEST PUSH2 0xD3F JUMP JUMPDEST PUSH2 0x79C JUMP JUMPDEST SWAP1 POP SWAP2 SWAP1 POP JUMP JUMPDEST PUSH1 0x0 DUP2 SWAP1 POP SWAP2 SWAP1 POP JUMP JUMPDEST PUSH2 0xD7E DUP4 PUSH2 0xD49 JUMP JUMPDEST PUSH2 0xD92 PUSH2 0xD8A DUP3 PUSH2 0xD6B JUMP JUMPDEST DUP5 DUP5 SLOAD PUSH2 0xCED JUMP JUMPDEST DUP3 SSTORE POP POP POP POP JUMP JUMPDEST PUSH1 0x0 SWAP1 JUMP JUMPDEST PUSH2 0xDA7 PUSH2 0xD9A JUMP JUMPDEST PUSH2 0xDB2 DUP2 DUP5 DUP5 PUSH2 0xD75 JUMP JUMPDEST POP POP POP JUMP JUMPDEST JUMPDEST DUP2 DUP2 LT ISZERO PUSH2 0xDD6 JUMPI PUSH2 0xDCB PUSH1 0x0 DUP3 PUSH2 0xD9F JUMP JUMPDEST PUSH1 0x1 DUP2 ADD SWAP1 POP PUSH2 0xDB8 JUMP JUMPDEST POP POP JUMP JUMPDEST PUSH1 0x1F DUP3 GT ISZERO PUSH2 0xE1B JUMPI PUSH2 0xDEC DUP2 PUSH2 0xCBB JUMP JUMPDEST PUSH2 0xDF5 DUP5 PUSH2 0xCD0 JUMP JUMPDEST DUP2 ADD PUSH1 0x20 DUP6 LT ISZERO PUSH2 0xE04 JUMPI DUP2 SWAP1 POP JUMPDEST PUSH2 0xE18 PUSH2 0xE10 DUP6 PUSH2 0xCD0 JUMP JUMPDEST DUP4 ADD DUP3 PUSH2 0xDB7 JUMP JUMPDEST POP POP JUMPDEST POP POP POP JUMP JUMPDEST PUSH1 0x0 DUP3 DUP3 SHR SWAP1 POP SWAP3 SWAP2 POP POP JUMP JUMPDEST PUSH1 0x0 PUSH2 0xE3E PUSH1 0x0 NOT DUP5 PUSH1 0x8 MUL PUSH2 0xE20 JUMP JUMPDEST NOT DUP1 DUP4 AND SWAP2 POP POP SWAP3 SWAP2 POP POP JUMP JUMPDEST PUSH1 0x0 PUSH2 0xE57 DUP4 DUP4 PUSH2 0xE2D JUMP JUMPDEST SWAP2 POP DUP3 PUSH1 0x2 MUL DUP3 OR SWAP1 POP SWAP3 SWAP2 POP POP JUMP JUMPDEST PUSH2 0xE70 DUP3 PUSH2 0xA12 JUMP JUMPDEST PUSH8 0xFFFFFFFFFFFFFFFF DUP2 GT ISZERO PUSH2 0xE89 JUMPI PUSH2 0xE88 PUSH2 0x7ED JUMP JUMPDEST JUMPDEST PUSH2 0xE93 DUP3 SLOAD PUSH2 0xC8A JUMP JUMPDEST PUSH2 0xE9E DUP3 DUP3 DUP6 PUSH2 0xDDA JUMP JUMPDEST PUSH1 0x0 PUSH1 0x20 SWAP1 POP PUSH1 0x1F DUP4 GT PUSH1 0x1 DUP2 EQ PUSH2 0xED1 JUMPI PUSH1 0x0 DUP5 ISZERO PUSH2 0xEBF JUMPI DUP3 DUP8 ADD MLOAD SWAP1 POP JUMPDEST PUSH2 0xEC9 DUP6 DUP3 PUSH2 0xE4B JUMP JUMPDEST DUP7 SSTORE POP PUSH2 0xF31 JUMP JUMPDEST PUSH1 0x1F NOT DUP5 AND PUSH2 0xEDF DUP7 PUSH2 0xCBB JUMP JUMPDEST PUSH1 0x0 JUMPDEST DUP3 DUP2 LT ISZERO PUSH2 0xF07 JUMPI DUP5 DUP10 ADD MLOAD DUP3 SSTORE PUSH1 0x1 DUP3 ADD SWAP2 POP PUSH1 0x20 DUP6 ADD SWAP5 POP PUSH1 0x20 DUP2 ADD SWAP1 POP PUSH2 0xEE2 JUMP JUMPDEST DUP7 DUP4 LT ISZERO PUSH2 0xF24 JUMPI DUP5 DUP10 ADD MLOAD PUSH2 0xF20 PUSH1 0x1F DUP10 AND DUP3 PUSH2 0xE2D JUMP JUMPDEST DUP4 SSTORE POP JUMPDEST PUSH1 0x1 PUSH1 0x2 DUP9 MUL ADD DUP9 SSTORE POP POP POP JUMPDEST POP POP POP POP POP POP JUMP JUMPDEST PUSH32 0x4E487B7100000000000000000000000000000000000000000000000000000000 PUSH1 0x0 MSTORE PUSH1 0x32 PUSH1 0x4 MSTORE PUSH1 0x24 PUSH1 0x0 REVERT INVALID LOG2 PUSH5 0x6970667358 0x22 SLT KECCAK256 0xBC 0x26 DUP2 DELEGATECALL 0x28 LOG3 0xE6 SMOD 0x27 0xAE PUSH25 0xBC18BD34ADDC48FF691DE8B2B17BC8F39AA7A294E464736F6C PUSH4 0x43000818 STOP CALLER "},"methodIdentifiers":{"bids(uint256,uint256)":"7b3c4baa","evaluateBids(uint256)":"3dfa2fea","getWinningBid(uint256)":"6891939d","onboardSupplier(string,string)":"6175cc62","submitBid(uint256,uint256,string)":"14c60bdd","suppliers(address)":"16dc15fe","winningBid(uint256)":"d4ac9b8c"}}}}}