{
  "_format": "hh-sol-artifact-1",
  "contractName": "Procurement",
  "sourceName": "contracts/Procurement.sol",
  "abi": [
    {
      "inputs": [
        {
          "internalType": "uint256",
          "name": "",
          "type": "uint256"
        },
        {
          "internalType": "uint256",
          "name": "",
          "type": "uint256"
        }
      ],
      "name": "bids",
      "outputs": [
        {
          "internalType": "address",
          "name": "supplier",
          "type": "address"
        },
        {
          "internalType": "uint256",
          "name": "amount",
          "type": "uint256"
        },
        {
          "internalType": "string",
          "name": "details",
          "type": "string"
        },
        {
          "internalType": "bool",
          "name": "isSubmitted",
          "type": "bool"
        }
      ],
      "stateMutability": "view",
      "type": "function"
    },
    {
      "inputs": [
        {
          "internalType": "uint256",
          "name": "_rfpId",
          "type": "uint256"
        }
      ],
      "name": "evaluateBids",
      "outputs": [],
      "stateMutability": "nonpayable",
      "type": "function"
    },
    {
      "inputs": [
        {
          "internalType": "uint256",
          "name": "_rfpId",
          "type": "uint256"
        }
      ],
      "name": "getWinningBid",
      "outputs": [
        {
          "internalType": "address",
          "name": "",
          "type": "address"
        }
      ],
      "stateMutability": "view",
      "type": "function"
    },
    {
      "inputs": [
        {
          "internalType": "string",
          "name": "_name",
          "type": "string"
        },
        {
          "internalType": "string",
          "name": "_registrationNumber",
          "type": "string"
        }
      ],
      "name": "onboardSupplier",
      "outputs": [],
      "stateMutability": "nonpayable",
      "type": "function"
    },
    {
      "inputs": [
        {
          "internalType": "uint256",
          "name": "_rfpId",
          "type": "uint256"
        },
        {
          "internalType": "uint256",
          "name": "_amount",
          "type": "uint256"
        },
        {
          "internalType": "string",
          "name": "_details",
          "type": "string"
        }
      ],
      "name": "submitBid",
      "outputs": [],
      "stateMutability": "nonpayable",
      "type": "function"
    },
    {
      "inputs": [
        {
          "internalType": "address",
          "name": "",
          "type": "address"
        }
      ],
      "name": "suppliers",
      "outputs": [
        {
          "internalType": "string",
          "name": "name",
          "type": "string"
        },
        {
          "internalType": "string",
          "name": "registrationNumber",
          "type": "string"
        },
        {
          "internalType": "bool",
          "name": "isApproved",
          "type": "bool"
        }
      ],
      "stateMutability": "view",
      "type": "function"
    },
    {
      "inputs": [
        {
          "internalType": "uint256",
          "name": "",
          "type": "uint256"
        }
      ],
      "name": "winningBid",
      "outputs": [
        {
          "internalType": "address",
          "name": "",
          "type": "address"
        }
      ],
      "stateMutability": "view",
      "type": "function"
    }
  ],
  "bytecode": "0x608060405234801561001057600080fd5b50610f9e806100206000396000f3fe608060405234801561001057600080fd5b506004361061007d5760003560e01c80636175cc621161005b5780636175cc62146100ec5780636891939d146101085780637b3c4baa14610138578063d4ac9b8c1461016b5761007d565b806314c60bdd1461008257806316dc15fe1461009e5780633dfa2fea146100d0575b600080fd5b61009c60048036038101906100979190610918565b61019b565b005b6100b860048036038101906100b391906109e5565b61029f565b6040516100c793929190610aac565b60405180910390f35b6100ea60048036038101906100e59190610af1565b6103e6565b005b61010660048036038101906101019190610b1e565b610567565b005b610122600480360381019061011d9190610af1565b610616565b60405161012f9190610ba5565b60405180910390f35b610152600480360381019061014d9190610bc0565b610653565b6040516101629493929190610c0f565b60405180910390f35b61018560048036038101906101809190610af1565b610755565b6040516101929190610ba5565b60405180910390f35b6001600084815260200190815260200160002060405180608001604052803373ffffffffffffffffffffffffffffffffffffffff16815260200184815260200183815260200160011515815250908060018154018082558091505060019003906000526020600020906004020160009091909190915060008201518160000160006101000a81548173ffffffffffffffffffffffffffffffffffffffff021916908373ffffffffffffffffffffffffffffffffffffffff1602179055506020820151816001015560408201518160020190816102779190610e67565b5060608201518160030160006101000a81548160ff0219169083151502179055505050505050565b60006020528060005260406000206000915090508060000180546102c290610c8a565b80601f01602080910402602001604051908101604052809291908181526020018280546102ee90610c8a565b801561033b5780601f106103105761010080835404028352916020019161033b565b820191906000526020600020905b81548152906001019060200180831161031e57829003601f168201915b50505050509080600101805461035090610c8a565b80601f016020809104026020016040519081016040528092919081815260200182805461037c90610c8a565b80156103c95780601f1061039e576101008083540402835291602001916103c9565b820191906000526020600020905b8154815290600101906020018083116103ac57829003601f168201915b5050505050908060020160009054906101000a900460ff16905083565b60007fffffffffffffffffffffffffffffffffffffffffffffffffffffffffffffffff9050600080600090505b600160008581526020019081526020016000208054905081101561050f578260016000868152602001908152602001600020828154811061045757610456610f39565b5b90600052602060002090600402016001015410156105025760016000858152602001908152602001600020818154811061049457610493610f39565b5b90600052602060002090600402016001015492506001600085815260200190815260200160002081815481106104cd576104cc610f39565b5b906000526020600020906004020160000160009054906101000a900473ffffffffffffffffffffffffffffffffffffffff1691505b8080600101915050610413565b50806002600085815260200190815260200160002060006101000a81548173ffffffffffffffffffffffffffffffffffffffff021916908373ffffffffffffffffffffffffffffffffffffffff160217905550505050565b6040518060600160405280838152602001828152602001600115158152506000803373ffffffffffffffffffffffffffffffffffffffff1673ffffffffffffffffffffffffffffffffffffffff16815260200190815260200160002060008201518160000190816105d89190610e67565b5060208201518160010190816105ee9190610e67565b5060408201518160020160006101000a81548160ff0219169083151502179055509050505050565b60006002600083815260200190815260200160002060009054906101000a900473ffffffffffffffffffffffffffffffffffffffff169050919050565b6001602052816000526040600020818154811061066f57600080fd5b9060005260206000209060040201600091509150508060000160009054906101000a900473ffffffffffffffffffffffffffffffffffffffff16908060010154908060020180546106bf90610c8a565b80601f01602080910402602001604051908101604052809291908181526020018280546106eb90610c8a565b80156107385780601f1061070d57610100808354040283529160200191610738565b820191906000526020600020905b81548152906001019060200180831161071b57829003601f168201915b5050505050908060030160009054906101000a900460ff16905084565b60026020528060005260406000206000915054906101000a900473ffffffffffffffffffffffffffffffffffffffff1681565b6000604051905090565b600080fd5b600080fd5b6000819050919050565b6107af8161079c565b81146107ba57600080fd5b50565b6000813590506107cc816107a6565b92915050565b600080fd5b600080fd5b6000601f19601f8301169050919050565b7f4e487b7100000000000000000000000000000000000000000000000000000000600052604160045260246000fd5b610825826107dc565b810181811067ffffffffffffffff82111715610844576108436107ed565b5b80604052505050565b6000610857610788565b9050610863828261081c565b919050565b600067ffffffffffffffff821115610883576108826107ed565b5b61088c826107dc565b9050602081019050919050565b82818337600083830152505050565b60006108bb6108b684610868565b61084d565b9050828152602081018484840111156108d7576108d66107d7565b5b6108e2848285610899565b509392505050565b600082601f8301126108ff576108fe6107d2565b5b813561090f8482602086016108a8565b91505092915050565b60008060006060848603121561093157610930610792565b5b600061093f868287016107bd565b9350506020610950868287016107bd565b925050604084013567ffffffffffffffff81111561097157610970610797565b5b61097d868287016108ea565b9150509250925092565b600073ffffffffffffffffffffffffffffffffffffffff82169050919050565b60006109b282610987565b9050919050565b6109c2816109a7565b81146109cd57600080fd5b50565b6000813590506109df816109b9565b92915050565b6000602082840312156109fb576109fa610792565b5b6000610a09848285016109d0565b91505092915050565b600081519050919050565b600082825260208201905092915050565b60005b83811015610a4c578082015181840152602081019050610a31565b60008484015250505050565b6000610a6382610a12565b610a6d8185610a1d565b9350610a7d818560208601610a2e565b610a86816107dc565b840191505092915050565b60008115159050919050565b610aa681610a91565b82525050565b60006060820190508181036000830152610ac68186610a58565b90508181036020830152610ada8185610a58565b9050610ae96040830184610a9d565b949350505050565b600060208284031215610b0757610b06610792565b5b6000610b15848285016107bd565b91505092915050565b60008060408385031215610b3557610b34610792565b5b600083013567ffffffffffffffff811115610b5357610b52610797565b5b610b5f858286016108ea565b925050602083013567ffffffffffffffff811115610b8057610b7f610797565b5b610b8c858286016108ea565b9150509250929050565b610b9f816109a7565b82525050565b6000602082019050610bba6000830184610b96565b92915050565b60008060408385031215610bd757610bd6610792565b5b6000610be5858286016107bd565b9250506020610bf6858286016107bd565b9150509250929050565b610c098161079c565b82525050565b6000608082019050610c246000830187610b96565b610c316020830186610c00565b8181036040830152610c438185610a58565b9050610c526060830184610a9d565b95945050505050565b7f4e487b7100000000000000000000000000000000000000000000000000000000600052602260045260246000fd5b60006002820490506001821680610ca257607f821691505b602082108103610cb557610cb4610c5b565b5b50919050565b60008190508160005260206000209050919050565b60006020601f8301049050919050565b600082821b905092915050565b600060088302610d1d7fffffffffffffffffffffffffffffffffffffffffffffffffffffffffffffffff82610ce0565b610d278683610ce0565b95508019841693508086168417925050509392505050565b6000819050919050565b6000610d64610d5f610d5a8461079c565b610d3f565b61079c565b9050919050565b6000819050919050565b610d7e83610d49565b610d92610d8a82610d6b565b848454610ced565b825550505050565b600090565b610da7610d9a565b610db2818484610d75565b505050565b5b81811015610dd657610dcb600082610d9f565b600181019050610db8565b5050565b601f821115610e1b57610dec81610cbb565b610df584610cd0565b81016020851015610e04578190505b610e18610e1085610cd0565b830182610db7565b50505b505050565b600082821c905092915050565b6000610e3e60001984600802610e20565b1980831691505092915050565b6000610e578383610e2d565b9150826002028217905092915050565b610e7082610a12565b67ffffffffffffffff811115610e8957610e886107ed565b5b610e938254610c8a565b610e9e828285610dda565b600060209050601f831160018114610ed15760008415610ebf578287015190505b610ec98582610e4b565b865550610f31565b601f198416610edf86610cbb565b60005b82811015610f0757848901518255600182019150602085019450602081019050610ee2565b86831015610f245784890151610f20601f891682610e2d565b8355505b6001600288020188555050505b505050505050565b7f4e487b7100000000000000000000000000000000000000000000000000000000600052603260045260246000fdfea2646970667358221220bc2681f428a3e60727ae78bc18bd34addc48ff691de8b2b17bc8f39aa7a294e464736f6c63430008180033",
  "linkReferences": {},
  "deployedLinkReferences": {}
}